:020000040800F2
:10000000F0B3002079020008871B00087F1B00085E
:10001000831B000899070008891F000800000000E2
:10002000000000000000000000000000E1010008E6
:10003000B50700080000000025020008551C000854
:10004000930200089302000893020008930200083C
:10005000930200089302000893020008930200082C
:10006000930200089302000893020008930200081C
:10007000930200089302000893020008930200080C
:1000800093020008930200089302000893020008FC
:1000900093020008930200089302000893020008EC
:1000A00093020008930200089302000893020008DC
:1000B00093020008930200089302000893020008CC
:1000C00093020008930200089302000893020008BC
:1000D00093020008791F00089302000893020008A9
:1000E000930200089302000893020008930200089C
:1000F000930200089302000893020008930200088C
:10010000930200089302000893020008930200087B
:1001100093020008930200086D1C00087D1C000873
:10012000930200089302000893020008930200085B
:1001300000F002F800F045F80AA090E8000C8244B4
:100140008344AAF10107DA4501D100F03AF8AFF291
:10015000090EBAE80F0013F0010F18BFFB1A43F0A5
:10016000010318475CA200007CA20000103A24BFE3
:1001700078C878C1FAD8520724BF30C830C144BF0C
:1001800004680C607047000000230024002500264E
:10019000103A28BF78C1FBD8520728BF30C148BFEA
:1001A0000B607047642900F0F380782900F02C81FF
:1001B000732900F05182002070471FB51FBD10B594
:1001C00010BD00F0B7FA1146FFF7F7FF07F03AF954
:1001D00000F0D5FA03B4FFF7F2FF03BC01F0F2FE22
:1001E000224B19680868B0E8F00F80F30988BFF364
:1001F0006F8F4FF0000080F311884EF00D0E7047A6
:100200000000000006480068006880F3088862B6B5
:1002100061B6BFF34F8FBFF36F8F00DF00BF00BF2A
:1002200008ED00E0EFF30980BFF36F8F0F4B1A6802
:1002300020E9F00F106008B54FF0500080F31188EE
:10024000BFF34F8FBFF36F8F08F06AFE4FF00000CF
:1002500080F31188BDE8084019680868B0E8F00F1D
:1002600080F30988BFF36F8F704700BF48000020FC
:10027000EFF30580704700000948804709480047B0
:10028000FEE7FEE7FEE7FEE7FEE7FEE7FEE7FEE746
:10029000FEE7FEE704480549054A064B70470000A3
:1002A000691C000831010008F0AD0020F0B3002007
:1002B000F0AF0020F0AF0020704700000FB40449F9
:1002C00010B503AA029800F0CBF910BC5DF814FB3E
:1002D0001C0000202DE9F0410E460446002020625B
:1002E0002046E168884730B3252805D0D4E90121AC
:1002F0009047206A401CF2E7E168204600278847C3
:10030000050018D0A5F14100192802D820354FF476
:1003100000673246294620462760FFF743FF40B179
:10032000012804D0F61D26F007060836D8E7361D4A
:10033000D6E72846DAE7206ABDE8F08170B50C46BA
:100340000546012A05D02878800600D5EA690023F1
:1003500002E0012305E05B1C934202D2E05C00282E
:10036000F9D1A869E618C01AA861286A1844286259
:100370002846AFF3008004E0D5E9012114F8010B11
:100380009047B442F8D32846AFF3008070BD000018
:100390002DE9F0410646002410687529314616A55E
:1003A00010D0AFF30080002802DA404213A507E026
:1003B00031688A0701D512A502E0490704D511A5C5
:1003C000012401E0AFF3008000210A2206F1240796
:1003D00009E0B0FBF2FCB0FBF2F302FB1C00303092
:1003E00078541846491C0028F3D123462A46304643
:1003F000BDE8F04100F0ACB8000000002D000000A6
:100400002B0000002000000070B504460D46214678
:100410001068AFF300802188090502D50F4A7A449D
:1004200002E00E4A7A440E32002104F1240305E072
:1004300000F00F060009965D5E54491C0028F7D1B4
:1004400020780023000704D5702D02D009B10223C3
:1004500011322046BDE8704000F07AB8769F000067
:10046000032A40F2308010F0030C00F0158011F8E0
:10047000013BBCF1020F624498BF11F801CB00F8B8
:10048000013B38BF11F8013BA2F1040298BF00F80C
:1004900001CB38BF00F8013B11F0030300F0F280FC
:1004A000083AC0F0088051F8043B083A51F804CBF0
:1004B000A0E80810F5E7121D5CBF51F8043B40F8B6
:1004C000043BAFF30080D20724BF11F8013B11F8C1
:1004D00001CB48BF11F8012B24BF00F8013B00F805
:1004E00001CB48BF00F8012B704702F0FF0343EA3D
:1004F000032242EA024200F0F9B84FF0000200B5D0
:10050000134694469646203922BFA0E80C50A0E836
:100510000C50B1F12001BFF4F7AF090728BFA0E8E4
:100520000C5048BF0CC05DF804EB890028BF40F8B0
:10053000042B08BF704748BF20F8022B11F0804FF2
:1005400018BF00F8012B704770477047704770471D
:100550002DE9F0470D4699469246044600F12408DD
:100560000168880604D5E06921F01001216000E0EF
:100570000120A84201DD471B00E00027A1697A198C
:1005800002EB0900081AA0612078C00602D42046B8
:10059000AFF30080002608E0D4E901211AF8060034
:1005A0009047206A401C761C20624E45F4DB207880
:1005B000C0060AD52046AFF3008006E0D4E9012149
:1005C00030209047206A401C2062381EA7F10107A6
:1005D000F4DC07E0D4E9012118F805009047206A0F
:1005E000401C2062281EA5F10105F3DC2046AFF374
:1005F00000802078000602D50220BDE8F0870120A7
:10060000FBE7000001694A1C02610878704700B5E9
:100610008FB0CDE901310021059105497944CDE93B
:10062000031011466846FFF755FE0FB000BD0000ED
:10063000E5FFFFFF10B5436913B1AFF3008001E0A0
:10064000FFF77CFE012010BD127800F124010A7032
:1006500000224A700122EDE711684FF0FF32E9E70E
:10066000074B70B50D467B44FFF7D1FF0446284683
:1006700000F05CF810B14FF0FF3070BD204670BD47
:10068000B71A000010B5203AC0F00B80B1E818503E
:10069000203AA0E81850B1E81850A0E81850BFF46C
:1006A000F5AF5FEA027C24BFB1E81850A0E818500B
:1006B00044BF18C918C0BDE810405FEA827C24BF5F
:1006C00051F8043B40F8043B08BF7047D20728BFED
:1006D00031F8023B48BF11F8012B28BF20F8023B3C
:1006E00048BF00F8012B70474FF000020429C0F00A
:1006F000128010F0030C3FF402AFCCF1040CBCF1FB
:10070000020F18BF00F8012BA8BF20F8022BA1EBA5
:100710000C01FFF7F4BE5FEAC17C24BF00F8012B97
:1007200000F8012B48BF00F8012B7047007B00F058
:1007300080007047754600F02BF8AE46050069460C
:10074000534620F00700854618B020B5FFF7A2FDFC
:10075000BDE820404FF000064FF000074FF00008C2
:100760004FF0000B21F00701AC46ACE8C009ACE843
:10077000C009ACE8C009ACE8C0098D46704710B5A7
:100780000446AFF300802046BDE81040FFF722BDCD
:10079000004870478CAD002000BFFEE710B509216E
:1007A000232001F011FC00200149086010BD000069
:1007B000300000207047000070B50446002594F812
:1007C0002100022803D00420A0630125C1E0206895
:1007D000006820F00E00216808602068006820F0A2
:1007E0000100216808605C492068884252D95A4952
:1007F00078392068884201D1012047E056496439A0
:100800002068884201D1102040E0534950392068C7
:10081000884201D1801539E04F493C39206888422F
:1008200001D1801432E04C4928392068884202D135
:100830004FF480302AE0484914392068884202D1B8
:100840004FF4801022E044492068884201D14004DE
:100850001CE042492068884201D1012016E03F494E
:1008600014312068884201D110200FE03B49283123
:100870002068884201D1801508E038493C31206861
:10088000884201D1801401E04FF480303349091FC0
:10089000086051E0304978392068884201D1012050
:1008A00047E02D4964392068884201D1102040E09A
:1008B000294950392068884201D1801539E02649FC
:1008C0003C392068884201D1801432E0224928391D
:1008D0002068884202D14FF480302AE01E49143942
:1008E0002068884202D14FF4801022E01A49206823
:1008F000884201D140041CE018492068884201D197
:10090000012016E0154914312068884201D11020D9
:100910000FE0124928312068884201D1801508E093
:100920000E493C312068884201D1801401E04FF427
:100930008030094980394860012084F8210000BFD7
:10094000002084F8200000BF606B10B12046616B6E
:100950008847284670BD000080000240080402401D
:100960002DE9F847024600239C467BE14FF0010841
:1009700008FA03F4D1F8008008EA0400A0427DD10F
:10098000DFF8F4A2D1F80480A8EB0A09D0453AD0E8
:1009900014DCB8F1030F50D009DCB8F1000F31D0EE
:1009A000B8F1010F1CD0B8F1020F49D120E0B8F125
:1009B000110F18D0B8F1120F42D11EE0B9F5881FFF
:1009C00025D006DCB9F5803F20D0B9F5801F37D19E
:1009D0001AE0B9F5001F18D0B9F5041F30D117E09F
:1009E000D1F80CC02DE0D1F80C8008F1040C28E0FF
:1009F000D1F80C8008F1080C23E0D1F80C8008F144
:100A00000C0C1EE000BF00BF00BF00BF00BF00BF56
:100A1000D1F80880B8F1000F02D14FF0040C0BE0C0
:100A2000D1F80880B8F1010F03D14FF0080C146120
:100A300002E04FF0080C546103E04FF0000C00E0BE
:100A400000BF00BFFF2801D8904601E002F1040872
:100A50004646FF2802D84FEA830803E0A3F10808BE
:100A60004FEA88084746D6F800804FF00F0909FA88
:100A700007F928EA09080CFA07F900E07AE048EAE1
:100A80000908C6F80080D1F8048008F08058B8F151
:100A9000805F6FD100BFDFF8E481D8F8188048F09C
:100AA0000108DFF8D891C9F81880C846D8F818802E
:100AB00008F00108CDF8008000BF00BF4FEAB93848
:100AC0004FEA930958F829504FEA83784FEA18798A
:100AD0004FF00F0808FA09F825EA0805DFF8A081A9
:100AE000424502D14FF0000824E0DFF898814245EA
:100AF00002D14FF001081DE0DFF88C81424502D1A0
:100B00004FF0020816E0DFF88481424502D14FF031
:100B100003080FE0DFF87881424502D14FF0040866
:100B200008E0DFF87081424502D14FF0050801E08E
:100B30004FF006084FEA83794FEA197908FA09F865
:100B400048EA0505DFF850814FEA930948F8295033
:100B5000D1F8048008F48038B8F5803F0BD1DFF875
:100B60003C81D8F8008048EA0008DFF83091C9F8E5
:100B700000800AE075E0DFF82481D8F8008028EAD8
:100B80000008DFF81891C9F80080D1F8048008F453
:100B90000038B8F5003F0ED1DFF8008108F10408F5
:100BA000D8F8008048EA0008DFF8F09009F104095D
:100BB000C9F800800DE0DFF8E48008F10408D8F8F7
:100BC000008028EA0008DFF8D49009F10409C9F888
:100BD0000080D1F8048008F48018B8F5801F0ED189
:100BE000DFF8B88008F10808D8F8008048EA000863
:100BF000DFF8A89009F10809C9F800800DE0DFF8D6
:100C00009C8008F10808D8F8008028EA0008DFF87E
:100C10008C9009F10809C9F80080D1F8048008F423
:100C20000018B8F5001F0ED1DFF8708008F10C082D
:100C3000D8F8008048EA0008DFF8609009F10C0954
:100C4000C9F800800DE0DFF8548008F10C08D8F8EE
:100C5000008028EA0008DFF8449009F10C09C9F87F
:100C600000805B1CD1F8008028FA03F8B8F1000F6F
:100C70007FF47CAEBDE8F887000011100010024040
:100C800000080140000C0140001001400014014028
:100C900000180140001C0140080001400004014010
:100CA000024693680B400BB1012000E00020704722
:100CB0000AB1016101E00B0403617047014800685B
:100CC00070470000240000200348006803490978A9
:100CD0000844014908607047240000202C000020CF
:100CE00010B50848006840F010000649086003206D
:100CF00000F080F80F2000F007F800F02BF800203B
:100D000010BD00000020024070B504460E48007877
:100D10004FF47A71B1FBF0F00C490968B1FBF0F5C2
:100D2000284600F0F7FB08B1012070BD102C07D257
:100D300000222146501E00F01EF80548046001E024
:100D40000120F2E70020F0E72C0000200000002046
:100D500028000020704701460846002809DB00F003
:100D60001F0301229A4043099B0003F1E023C3F8CB
:100D7000002100BF70472DE9F05F80460D46164602
:100D8000002701F003F9074639462A46334601F0A9
:100D90000700C0F1070ABAF1040F02D94FF0040AA4
:100DA00001E0C0F1070AD14600F1040ABAF1070FC9
:100DB00002D24FF0000A01E0A0F1030AD4464FF03E
:100DC000010A0AFA09FAAAF1010A0AEA020A0AFA67
:100DD0000CFA4FF0010B0BFA0CFBABF1010B0BEA19
:100DE000030B4AEA0B042146404601F0D7F8BDE860
:100DF000F09F000000BF00F00702064B19684FF695
:100E0000FF031940044B0B4343EA0221014B1960D5
:100E100000BF70470CED00E00000FA0570B5044615
:100E20000D460CB9012070BD5A48006800F007005B
:100E3000A8420ED25748006820F0070028435549C1
:100E400008600846006800F00700A84201D00120B1
:100E5000E9E7207800F0020002281DD1207800F098
:100E60000400042805D14C48406840F4E0604A4939
:100E70004860207800F00800082805D146484068FE
:100E800040F46050444948604348406820F0F00016
:100E9000A168084340494860207800F0010078B319
:100EA0006068012806D13C48006800F4003090B921
:100EB0000120B8E76068022806D13748006800F0D2
:100EC000007040B90120AEE73348006800F002002E
:100ED00008B90120A7E73048406820F003006168A6
:100EE00008432D494860FFF7E9FE064609E0FFF791
:100EF000E5FE801B41F28831884202D9032092E747
:100F000007E02548406800F00C006168B0EB810FF5
:100F1000EDD12048006800F00700A8420ED91D4816
:100F2000006820F0070028431A4908600846006856
:100F300000F00700A84201D0012074E7207800F0FB
:100F40000400042807D11448406820F4E060E168F8
:100F5000084311494860207800F00800082808D1AB
:100F60000D48406820F46050216940EAC1000A49F8
:100F7000486000F03FF808494968C1F30311074A87
:100F8000515CC8400649086006480068FFF7BCFE8F
:100F9000002048E7002002400010024074A300082F
:100FA0000000002028000020014800687047000071
:100FB0000000002000B5FFF7F7FF04494968C1F3BE
:100FC0000221034A515CC84000BD000000100240ED
:100FD00084A3000800B5FFF7E7FF04494968C1F39F
:100FE000C221034A515CC84000BD0000001002400D
:100FF00084A30008F0B585B00FF26C0C9CE8E010FB
:1010000001A8A0E8E0101CA52D6800950021002291
:10101000002300240020194D696801F00C05F5B18A
:10102000042D02D0082D19D101E0154819E001ADB9
:10103000C1F38346AC5D01F4803555B10F4D6D6849
:10104000C5F340451DF805200D4D6543B5FBF2F392
:1010500002E00C4D04FB05F3184602E000BF08480F
:1010600000BF00BF05B0F0BD020304050607080974
:101070000A0B0C0D0E0F10100102000000100240B0
:1010800000127A0000093D00F8B504460CB90120B1
:10109000F8BD207800F00100002878D0F8484068BA
:1010A00000F00C0004280CD0F548406800F00C005B
:1010B000082811D1F248406800F48030B0F5803F34
:1010C0000AD1EF48006800F4003000285FD0606863
:1010D00000285CD10120DBE700BF6068B0F5803FED
:1010E00006D1E748006840F48030E549086028E010
:1010F000606858B9E248006820F48030E049086030
:101100000846006820F4802008601AE06068B0F5A6
:10111000A02F0BD1DA48006840F48020D84908603D
:101120000846006840F4803008600AE0D44800684F
:1011300020F48030D24908600846006820F48020FE
:10114000086000BF606888B1FFF7B8FD054606E09B
:10115000FFF7B4FD401B642801D9032098E7C84875
:10116000006800F400300028F2D010E0FFF7A6FD80
:10117000054606E0FFF7A2FD401B642801D90320C5
:1011800086E7BF48006800F400300028F2D12078DC
:1011900000F00200022857D1B948406800F00C0066
:1011A00050B1B748406800F00C00082818D1B44886
:1011B000406800F4803098B9B148006800F002003F
:1011C00020B12069012801D0012061E7AC48006806
:1011D00020F0F800616940EAC100A949086033E0E5
:1011E0002069E8B10120A7490860FFF767FD0546BF
:1011F00006E0FFF763FD401B022801D9032047E703
:101200009F48006800F002000028F2D09C48006867
:1012100020F0F800616940EAC1009949086013E0D4
:10122000002098490860FFF749FD054606E0FFF7F2
:1012300045FD401B022801D9032029E7904800689A
:1012400000F002000028F2D1207800F00800082801
:101250002DD1A069B8B101208B490860FFF72EFDA0
:10126000054606E0FFF72AFD401B022801D90320AE
:101270000EE78348406A00F002000028F2D0012007
:1012800000F0D4FC13E000207F490860FFF716FD52
:10129000054606E0FFF712FD401B022801D9032096
:1012A000F6E67748406A00F002000028F2D1207884
:1012B00000F00400042873D100277148C06900F0D1
:1012C000805070B900BF6E48C06940F080506C49D2
:1012D000C8610846C06900F08050009000BF00BFA0
:1012E00001276A48006800F48070B0B96748006858
:1012F00040F4807065490860FFF7E0FC054606E0B1
:10130000FFF7DCFC401B642801D90320C0E65F48DE
:10131000006800F480700028F2D000BFE068012867
:1013200006D15748006A40F001005549086227E09D
:10133000E06858B95248006A20F00100504908623C
:101340000846006A20F00400086219E0E0680528F9
:101350000BD14B48006A40F0040049490862084636
:10136000006A40F0010008620AE04548006A20F087
:101370000100434908620846006A20F00400086240
:1013800000BFE068A0B1FFF799FC054609E0FFF750
:1013900095FC401B41F28831884202D9032077E650
:1013A00022E03748006A00F002000028EFD012E087
:1013B000FFF784FC054608E0FFF780FC401B41F284
:1013C0008831884201D9032062E62D48006A00F086
:1013D00002000028F0D1012F05D12948C06920F072
:1013E00080502749C86100BFE069C8B324484068FD
:1013F00000F00C00082860D0E069022848D10020E5
:1014000020490866FFF75AFC054606E0FFF756FC40
:10141000401B022801D903203AE61948006800F071
:1014200000700028F2D1206AB0F5803F07D114483F
:10143000406820F40030A168084311494860D4E9AD
:10144000080108430E49496821F4741108430C4906
:10145000486001200B490866FFF730FC054607E0AD
:101460003DE0FFF72BFC401B022801D903200FE6CB
:101470000348006800F000700028F2D02FE0000060
:1014800000100240000042428004424200700040CE
:10149000002014490866FFF711FC054606E0FFF737
:1014A0000DFC401B022801D90320F1E50E4800681D
:1014B00000F000700028F2D111E0E069012800D1AD
:1014C000E6E50948466806F48031206A814204D185
:1014D00006F47011606A814201D00120D8E5002035
:1014E000D6E500000000424200100240042808D166
:1014F0004FF0E021096941F004014FF0E022116151
:1015000007E04FF0E021096921F004014FF0E022EB
:101510001161704770B504462546681EB0F1807FA2
:1015200001D301200FE0681E4FF0E02148610F2138
:101530004FF0FF3000F032FD00204FF0E0218861D5
:1015400007200861002070BD7047704710B5044641
:101550000CB9012010BD94F83D0028B9002084F892
:101560003C00204600F025F8022084F83D00211DB3
:10157000206800F08BFB012084F8460000BF84F84F
:101580003E0001213F2001554020015541200155D9
:1015900000BF00BF012084F84200432001554420D1
:1015A00001554520015500BF012084F83D00002071
:1015B000D0E77047014691F83D00012801D0012095
:1015C0007047022081F83D000868C06840F00100C3
:1015D0000B68D860164B0868984213D0154B086802
:1015E00098420FD00868B0F1804F0BD0124B0868BA
:1015F000984207D0114B0868984203D0104B0868F6
:1016000098420CD10868806800F00702062A0CD0C6
:101610000868006840F001000B68186005E0086881
:10162000006840F001000B6818600020C8E7000067
:10163000002C01400034014000040040000800403C
:10164000000C0040704710B5044620680069C0F3E4
:101650004000D8B12068C068C0F34000B0B16FF05E
:10166000020021680861012020772068806900F06D
:10167000030018B12046FFF7E5FF05E0204600F023
:10168000ADF8204600F0ABF8002020772068006914
:10169000C0F38000D8B12068C068C0F38000B0B14A
:1016A0006FF00400216808610220207720688069BB
:1016B00000F4407018B12046FFF7C4FF05E0204653
:1016C00000F08CF8204600F08AF80020207720688F
:1016D0000069C0F3C000D8B12068C068C0F3C00082
:1016E000B0B16FF0080021680861042020772068FD
:1016F000C06900F0030018B12046FFF7A3FF05E022
:10170000204600F06BF8204600F069F800202077B2
:1017100020680069C0F30010D8B12068C068C0F329
:101720000010B0B16FF01000216808610820207728
:101730002068C06900F4407018B12046FFF782FFAE
:1017400005E0204600F04AF8204600F048F8002066
:1017500020772068006900F0010058B12068C06857
:1017600000F0010030B16FF00100216808612046EF
:1017700000F036F820680069C0F3C01058B1206846
:10178000C068C0F3C01030B16FF0800021680861FC
:101790002046FFF7D9FE20680069C0F3801058B1D9
:1017A0002068C068C0F3801030B16FF0400021683D
:1017B0000861204600F024F820680069C0F340105A
:1017C00058B12068C068C0F3401030B16FF02000FD
:1017D000216808612046FFF7B8FE10BD70477047CA
:1017E0000549884205D105490968491C034A116029
:1017F00000E000BF70470000F4010020300000202E
:10180000704770472DE9F047044620680568206856
:10181000C668206847694FF00008C14605F00F0808
:10182000B8F1000F0AD105F0200038B106F0200011
:1018300020B1204600F0A2FABDE8F087B8F1000F11
:1018400071D007F0010018B906F4907000286AD032
:1018500005F0010030B106F4807018B1E06B40F083
:101860000100E06305F0040030B107F0010018B199
:10187000E06B40F00200E06305F0020030B107F0D9
:10188000010018B1E06B40F00400E06305F00800CF
:1018900048B106F0200010B907F0010018B1E06B64
:1018A00040F00800E063E06B68B305F0200028B169
:1018B00006F0200010B1204600F060FA2068406970
:1018C000C0F38019E06B00F0080010B9B9F1000F07
:1018D00022D0204600F032FA2068406900F0400033
:1018E000B0B12068406920F0400021684861606B19
:1018F00050B11848616B4863606BFEF75DFF10B133
:10190000606B416B88470CE02046FFF77AFF08E0E8
:101910002046FFF776FF04E02046FFF772FF002025
:10192000E06389E7FFE705F0800030B106F0800052
:1019300018B1204600F0F0FA7EE705F0400030B123
:1019400006F0400018B1204600F008FA74E700BF26
:1019500072E70000291D000810B504460CB90120EB
:1019600010BDA06900B100E000BF94F8390028B9AB
:10197000002084F83800204600F028F8242084F85D
:1019800039002068C06820F400502168C8602046F3
:1019900000F044FA2068006920F490402168086152
:1019A0002068406920F02A00216848612068C068EA
:1019B00040F400502168C8600020E063202084F8D3
:1019C000390084F83A000020CAE7000010B586B05C
:1019D000044624492068884242D100BF00BF224803
:1019E000806940F00400204988610846806900F061
:1019F0000400019000BF00BF00BF00BF00BF084649
:101A0000806940F0040088610846806900F00400A5
:101A1000019000BF00BF00BF00BF00BF0846806943
:101A200040F4804088610846806900F4804001905D
:101A300000BF00BF00BF48150290022003900120A4
:101A400004900320059002A90848FEF789FF4FF48F
:101A5000806002900020039002A90448FEF780FFF6
:101A600006B010BD003801400010024000080140DF
:101A700010B5034693F83A0020282FD101B10AB9D6
:101A8000012010BD00BF93F83800012801D10220C9
:101A9000F7E7012083F8380000BF99629A85DA855C
:101AA0000020D863222083F83A0000BF002083F88A
:101AB000380000BF1868C06840F480701C68E0609F
:101AC0001868406940F001001C6860611868C068CF
:101AD00040F020001C68E0600020D2E70220D0E740
:101AE00010B504462049206888423BD11F48008831
:101AF00000F4004088BB1D48008800F4804070B1AD
:101B00001B4800780A2803D000201849088024E0E8
:101B10001648008840F40040144908801DE014482D
:101B200000780D2806D11148008840F480400F4904
:101B3000088012E00E4800780C490988C1F30D01B5
:101B40000C4A505409480088401C0849088008463F
:101B50000088C72801DD00200880012204490648CA
:101B6000FFF786FF10BD0000003801402000002074
:101B700022000020DC000020A4010020704700BFEC
:101B8000FEE700BFFEE7704708B500BF1A4880694E
:101B900040F00400184988610846806900F004009C
:101BA000009000BF00BF00BF0846806940F00800F9
:101BB00088610846806900F00800009000BF00BFFF
:101BC00000BF0846806940F01000886108468069BF
:101BD00000F01000009000BF00BF00BF0846806901
:101BE00040F0200088610846806900F020000090E5
:101BF00000BF00BF08BD0000001002400A48806915
:101C000020F00400084988610846806920F0080037
:101C100088610846806920F0100088610846806964
:101C200020F02000886170470010024008B5084984
:101C30000968C9084FF47A72B1FBF2F1414300918F
:101C400000BF00BF00994A1E00920029F9D108BDCB
:101C50000000002010B5FFF737F807F08DFE0128CF
:101C600001D007F07FFA10BD7047000010B50248A0
:101C7000FFF7E9FC10BD0000F401002010B5024898
:101C8000FFF7E1FC10BD00003C02002010B5026827
:101C9000204B98420ED0204B98420BD0B0F1804F91
:101CA00008D01E4B984205D01D4B984202D01D4BC8
:101CB000984203D122F070024B681A43154B9842A8
:101CC0000ED0154B98420BD0B0F1804F08D0134B7B
:101CD000984205D0124B984202D0124B984203D141
:101CE00022F44072CB681A4322F080034C6943EA25
:101CF000040202608B68C3620B688362054B9842E2
:101D000002D0054B984201D10B6903630123436163
:101D100010BD0000002C01400034014000040040D0
:101D200000080040000C004070B505466C6A0020B9
:101D3000E085E0842046FFF764FD70BD0168C96856
:101D400021F490710268D1600168496921F00101B4
:101D500002685161202180F83A10704710B504469E
:101D60002068C06820F040002168C860202084F806
:101D700039002046FFF702FF002010BD70B5044671
:101D800094F83A00222847D1A068B0F5805F0CD1C2
:101D9000206950B90025A66A20684068C0F3080091
:101DA0003080A06A801CA06215E0A56A0026A068A9
:101DB000B0F5805F03D0A06828B9206918B9206801
:101DC0004068287004E02068406800F07F002870B8
:101DD000A06A401CA062E08D401E80B2E085C8B9B8
:101DE0002068C06820F020002168C8602068C068B2
:101DF00020F480702168C8602068406920F00100EC
:101E000021684861202084F83A002046FFF768FEE8
:101E1000002070BD0020FCE70220FAE770B5044600
:101E20002168096921F44051E26811432268116177
:101E30002269A1681143626941EA02052168C96803
:101E400041F20C62914329432268D16021684969BB
:101E500021F44071A2691143226851612D4A216821
:101E6000914202D1FFF7B6F801E0FFF7A3F800EBCB
:101E7000C00101EB001162689200B1FBF2F100EBCE
:101E8000C00202EB001263689B00B2FBF3F2642312
:101E9000B2FBF3F202EBC20303EB0212A1EB8201ED
:101EA000322202EB01116422B1FBF2F101F0F001E8
:101EB00000EBC00202EB001263689B00B2FBF3F27E
:101EC0006423B2FBF3F201EB021200EBC00101EB61
:101ED000001163689B00B1FBF3F100EBC00303EB5F
:101EE00000136668B600B3FBF6F36426B3FBF6F3A3
:101EF00003EBC30606EB0313A1EB8301322303EBD1
:101F000001116423B1FBF3F101F00F0111442268C8
:101F1000916070BD00380140014691F839002128D8
:101F200028D18868B0F5805F0BD1086948B90A6A82
:101F30001088C0F308000B685860086A801C0862AB
:101F400005E00B6A581C086218780B685860C88C4A
:101F5000401E80B2C88458B90868C06820F080006C
:101F60000B68D8600868C06840F040000B68D86013
:101F7000002070470220FCE710B50248FFF742FC42
:101F800010BD0000A401002000BFFEE70248006869
:101F9000C0F30220704700000CED00E010B50028EF
:101FA00004DB0A07130E054A135406E00A07140E51
:101FB000034A00F00F031B1FD45410BD00E400E0DF
:101FC00018ED00E000BF704738B504460D4600BF6D
:101FD00000BF1248C06940F010001049C8610846AF
:101FE000C06900F01000009000BF00BF00BF0C48A7
:101FF0000C4908600846456000218160C4600161A9
:10200000FFF7A4FA002206213620FEF7B4FE3620A0
:10201000FEF7A1FE0348FFF7CDFA38BD00100240DD
:1020200000100040F401002070B5044600204FF07D
:10203000E0210861FFF75AFAE11704EB5171C1F38F
:10204000CF010C4A1180E11704EB5171CD104FF410
:102050007A7045434FF0E020006940F002004FF0F5
:10206000E021086108464561006940F0010008610F
:1020700070BD00001800002030B50446002504E0C3
:102080004FF47A7000F004F86D1CA542F8D330BD0F
:1020900070B5034600224FF0E02675690D4E368874
:1020A00003FB06F44FF0E026B16910E04FF0E026A4
:1020B000B06988420BD0884202D20E1A324402E044
:1020C0002E1A0E4432440146A24200D300E0EDE74E
:1020D00000BF70BD18000020012101200B4A1268CA
:1020E0000AB1002011E00A4A12680AB100200CE08F
:1020F000084A12680AB1002007E0074A1368074A35
:102100001268521E934200D1022070472885002099
:102110006C0000206800002050850020580000203E
:1021200000BF054A126802F04002002AF9D0C2B28C
:10213000014B1B1D1A607047003801401CB503227B
:102140000021012007F028F80A49086008460068C5
:1021500010B109A0FEF7B2F80F4801210023802238
:10216000CDE900100DA1104807F0D6FB06F034FEB3
:102170001CBD000014000020E4BA8CE580BCE4BF64
:10218000A1E58FB7E9878FE5889BE5BBBAE6889024
:10219000E58A9F0D0A00000004000020737461723C
:1021A000745F7461736B00001583000800B585B01F
:1021B00000BF00BF2948806940F0100027498861AE
:1021C0000846806900F01000009000BF00BF00BF0B
:1021D00000BF00BF0846806940F0040088610846DF
:1021E000806900F00400009000BF00BF00BF00BF86
:1021F00000BF0846806940F0040088610846806995
:1022000000F00400009000BF00BF00BF202001903C
:1022100000200290012003900320049001A910489F
:10222000FEF79EFB4FF40040019000200290012039
:1022300003900320049001A90A48FEF791FB0120B6
:10224000019000200290022003900320049001A935
:102250000448FEF785FB05B000BD000000100240F9
:10226000001001400008014070B50446002514B17B
:102270000120234908702248007858B320212148C2
:10228000FEF70EFD58B14FF400411F48FEF708FD60
:1022900028B101211C48FEF703FD01281AD10A20AC
:1022A000FFF7EAFE00201649087020211548FEF7C6
:1022B000F7FC00B901254FF400411348FEF7F0FC8C
:1022C00000B9022501211048FEF7EAFC012815D1CA
:1022D000032513E020210B48FEF7E2FC01280DD175
:1022E000C1030948FEF7DCFC012807D1012106489B
:1022F000FEF7D6FC10B9012001490870284670BDD0
:102300002D000020001001400008014078B504466F
:1023100000261B480588408845430021084604F0F4
:1023200061FD00BF1648008900904FF0807015498C
:10233000086140000861BDF80000134908604FF4CF
:10234000000010490861802008618000086100BF1A
:1023500000BF401008614004086100BF08E00A485F
:1023600004604FF400000749086180200861761C72
:10237000AE42F4D34FF400700249086178BD00000A
:10238000E4010020001001400C0C014010B504468F
:1023900058488471002C58D1F020564908804FF4D9
:1023A000A07048800846808845F21051884210D1BC
:1023B0004FF430504F4908814FF4285048814FF472
:1023C0002C5088814FF4F07008804FF4487048809A
:1023D0001AE04848808841F6631188420DD12C20CC
:1023E000444908812B2048812A2088814FF4F070CD
:1023F00008804FF44870488006E02C203D49088151
:102400002A2048812B2088813A48808845F2103163
:10241000884205D03748808847F29671884206D1B5
:102420004FF4A070334908804FF4F0704880314871
:10243000808849F60601884258D14FF4F0702D4942
:1024400008804FF44870488050E04FF4A07029494C
:102450000880F02048800846808845F21051884264
:1024600010D14FF43050234908814FF4285048814F
:102470004FF42C5088814FF4487008804FF4F0706E
:10248000488020E01B48808841F66311884205D0CF
:102490001848808849F6060188420DD12C2015493C
:1024A00008812A2048812B2088814FF448700880B9
:1024B0004FF4F070488006E02C200E4908812A2055
:1024C00048812B2088810B48808845F21031884252
:1024D00005D00848808847F29671884206D14FF4AB
:1024E000F070044908804FF4A0704880002004F088
:1024F000E5F910BDE401002008B5CF2000904FF0B1
:102500008070FE49086140000861BDF80000FC4988
:1025100008604FF40000F9490861802008618000DC
:10252000086100BF002004F009FFC12004F006FF8D
:10253000302004F003FFED2000904FF08070EF4951
:10254000086140000861BDF80000ED4908604FF4E3
:102550000000EA490861802008618000086100BF2E
:10256000642004F0EBFE032004F0E8FE122004F0E7
:10257000E5FE812004F0E2FEE82000904FF080703C
:10258000DE49086140000861BDF80000DC490860D0
:102590004FF40000D949086180200861800008617B
:1025A00000BF852004F0CAFE102004F0C7FE7A2088
:1025B00004F0C4FECB2000904FF08070CF4908613A
:1025C00040000861BDF80000CD4908604FF40000EC
:1025D000CA490861802008618000086100BF392075
:1025E00004F0ACFE2C2004F0A9FE002004F0A6FEAE
:1025F000342004F0A3FE022004F0A0FEF720009097
:102600004FF08070BD49086140000861BDF80000CE
:10261000BB4908604FF40000B84908618020086198
:102620008000086100BF202004F088FEEA200090AE
:102630004FF08070B149086140000861BDF80000AA
:10264000AF4908604FF40000AC4908618020086180
:102650008000086100BF002004F070FE002004F03C
:102660006DFEC02000904FF08070A44908614000CA
:102670000861BDF80000A24908604FF400009F49BE
:102680000861802008618000086100BF1B2004F001
:1026900055FEC12000904FF08070984908614000BD
:1026A0000861BDF80000964908604FF400009349A6
:1026B0000861802008618000086100BF012004F0EB
:1026C0003DFEC52000904FF080708C4908614000AD
:1026D0000861BDF800008A4908604FF4000087498E
:1026E0000861802008618000086100BF302004F08C
:1026F00025FE302004F022FEC72000904FF08070AD
:102700007E49086140000861BDF800007C4908600E
:102710004FF4000079490861802008618000086159
:1027200000BFB72004F00AFE362000904FF0807002
:102730007249086140000861BDF8000070490860F6
:102740004FF400006D490861802008618000086135
:1027500000BF482004F0F2FD3A2000904FF0807056
:102760006649086140000861BDF8000064490860DE
:102770004FF4000061490861802008618000086111
:1027800000BF552004F0DAFDB12000904FF08070BA
:102790005A49086140000861BDF8000058490860C6
:1027A0004FF40000554908618020086180000861ED
:1027B00000BF002004F0C2FD1A2004F0BFFDB620C7
:1027C00000904FF080704D49086140000861BDF8ED
:1027D00000004B4908604FF4000048490861802020
:1027E00008618000086100BF0A2004F0A7FDA22054
:1027F00004F0A4FDF22000904FF080703F49086182
:1028000040000861BDF800003D4908604FF4000039
:102810003A490861802008618000086100BF0020FB
:1028200004F08CFD262000904FF080703349086141
:1028300040000861BDF80000314908604FF4000015
:102840002E490861802008618000086100BF0120D6
:1028500004F074FDE02000904FF08070274908617B
:1028600040000861BDF80000254908604FF40000F1
:1028700022490861802008618000086100BF0F20A4
:1028800004F05CFD2A2004F059FD282004F056FDD8
:10289000082004F053FD0E2004F050FD082004F041
:1028A0004DFD542004F04AFDA92004F047FD4320CB
:1028B00004F044FD0A2004F041FD0F2004F03EFD29
:1028C000002004F03BFD002004F038FD002004F05F
:1028D00035FD002004F032FDE12000904FF08070C3
:1028E0000649086140000861BDF80000044908601D
:1028F0004FF4000001490861802003E0001001400E
:102900000C0C014008618000086100BF002004F049
:1029100015FD152004F012FD172004F00FFD07200F
:1029200004F00CFD112004F009FD062004F006FD62
:102930002B2004F003FD562004F000FD3C2004F0A1
:10294000FDFC052004F0FAFC102004F0F7FC0F2039
:1029500004F0F4FC3F2004F0F1FC3F2004F0EEFC16
:102960000F2004F0EBFC2B2000904FF080703649D4
:10297000086140000861BDF80000344908604FF468
:10298000000031490861802008618000086100BFB3
:10299000002004F0D3FC002004F0D0FC012004F05F
:1029A000CDFC3F2004F0CAFC2A2000904FF080703C
:1029B0002549086140000861BDF80000234908600E
:1029C0004FF4000020490861802008618000086100
:1029D00000BF002004F0B2FC002004F0AFFC002097
:1029E00004F0ACFCEF2004F0A9FC112000904FF0A3
:1029F00080701549086140000861BDF80000134966
:102A000008604FF4000010490861802008618000D0
:102A1000086100BF7820FFF72FFB292000904FF0BE
:102A200080700949086140000861BDF8000007494D
:102A300008604FF4000004490861802008618000AC
:102A4000086100BF08BD0000001001400C0C0140EF
:102A500008B5FF2000904FF08070FE4908614000EB
:102A60000861BDF80000FC4908604FF40000F94916
:102A70000861802008618000086100BFFF2004F029
:102A80005DFC982004F05AFC062004F057FCBC20A2
:102A900000904FF08070EF49086140000861BDF878
:102AA0000000ED4908604FF40000EA490861802009
:102AB00008618000086100BF012004F03FFC0F2086
:102AC00004F03CFC612004F039FCFF2004F036FCEB
:102AD000012004F033FC012004F030FC0B2004F052
:102AE0002DFC102004F02AFC372004F027FC632082
:102AF00004F024FCFF2004F021FCFF2004F01EFC65
:102B0000012004F01BFC012004F018FC002004F05C
:102B100015FC002004F012FCFF2004F00FFC5220F2
:102B200004F00CFC012004F009FC002004F006FC79
:102B3000402004F003FCBD2000904FF08070C54998
:102B4000086140000861BDF80000C34908604FF407
:102B50000000C0490861802008618000086100BF52
:102B6000012004F0EBFB232004F0E8FB452004F0F7
:102B7000E5FB672004F0E2FB012004F0DFFB2320EB
:102B800004F0DCFB452004F0D9FB672004F0D6FB01
:102B9000BE2000904FF08070AE490861400008618F
:102BA000BDF80000AC4908604FF40000A949086175
:102BB000802008618000086100BF002004F0BEFB97
:102BC000012004F0BBFBAB2004F0B8FB602004F054
:102BD000B5FB222004F0B2FB222004F0AFFB222040
:102BE00004F0ACFB222004F0A9FB222004F0A6FB99
:102BF000C72000904FF0807096490861400008613E
:102C0000BDF80000944908604FF400009149086144
:102C1000802008618000086100BF362004F08EFB30
:102C2000ED2000904FF080708A49086140000861F3
:102C3000BDF80000884908604FF40000854908612C
:102C4000802008618000086100BF7F2004F076FBCF
:102C50000F2004F073FBC02000904FF080707D497E
:102C6000086140000861BDF800007B4908604FF42E
:102C7000000078490861802008618000086100BF79
:102C80000F2004F05BFB0B2004F058FB0A2004F03B
:102C900055FBFC2000904FF080706E4908614000A9
:102CA0000861BDF800006C4908604FF400006949F4
:102CB0000861802008618000086100BF082004F0DE
:102CC0003DFBDF2000904FF08070624908614000BA
:102CD0000861BDF80000604908604FF400005D49DC
:102CE0000861802008618000086100BF002004F0B6
:102CF00025FB002004F022FB002004F01FFB002035
:102D000004F01CFB002004F019FB202004F016FB4B
:102D1000F32000904FF080704E4908614000086138
:102D2000BDF800004C4908604FF4000049490861B3
:102D3000802008618000086100BF742004F0FEFA62
:102D4000B42000904FF08070424908614000086153
:102D5000BDF80000404908604FF400003D4908619B
:102D6000802008618000086100BF002004F0E6FABE
:102D7000002004F0E3FA002004F0E0FAF7200090CD
:102D80004FF080703349086140000861BDF80000D1
:102D9000314908604FF400002E4908618020086125
:102DA0008000086100BF822004F0C8FAB1200090C2
:102DB0004FF080702749086140000861BDF80000AD
:102DC000254908604FF4000022490861802008610D
:102DD0008000086100BF002004F0B0FA132004F066
:102DE000ADFA132004F0AAFAF22000904FF08070A0
:102DF0001849086140000861BDF8000016490860E4
:102E00004FF40000134908618020086180000861C8
:102E100000BF802004F092FA042004F08FFA4020D2
:102E200004F08CFA282004F089FAC12000904FF0B9
:102E300080700849086140000861BDF8000006493B
:102E400008604FF400000349086180200861800099
:102E5000086103E0001001400C0C014000BF172086
:102E600004F06CFA882004F069FA882004F066FA0D
:102E7000202004F063FAE02000904FF080709F491A
:102E8000086140000861BDF800009D4908604FF4EA
:102E900000009A490861802008618000086100BF35
:102EA000002004F04BFA0A2004F048FA122004F043
:102EB00045FA102004F042FA0E2004F03FFA2020D8
:102EC00004F03CFACC2004F039FA072004F036FA7A
:102ED000062004F033FA0B2004F030FA0E2004F040
:102EE0002DFA0F2004F02AFA0D2004F027FA1520FD
:102EF00004F024FA102004F021FA002004F01EFA55
:102F0000E12000904FF080707C490861400008612A
:102F1000BDF800007A4908604FF400007749086165
:102F2000802008618000086100BF002004F006FADC
:102F30000B2004F003FA132004F000FA0D2004F033
:102F4000FDF90E2004F0FAF91B2004F0F7F97120C6
:102F500004F0F4F9062004F0F1F9062004F0EEF98B
:102F60000A2004F0EBF90F2004F0E8F90E2004F039
:102F7000E5F90F2004F0E2F9152004F0DFF90C2048
:102F800004F0DCF9002004F0D9F92A2000904FF079
:102F900080705A49086140000861BDF80000584936
:102FA00008604FF4000055490861802008618000E6
:102FB000086100BF002004F0C1F9002004F0BEF950
:102FC000012004F0BBF9DF2004F0B8F92B200090B9
:102FD0004FF080704949086140000861BDF8000069
:102FE000474908604FF400004449086180200861A7
:102FF0008000086100BF002004F0A0F9002004F068
:103000009DF9032004F09AF91F2004F097F93A2063
:1030100000904FF080703949086140000861BDF8A8
:103020000000374908604FF40000344908618020EF
:1030300008618000086100BF552004F07FF9362048
:1030400000904FF080702D49086140000861BDF884
:1030500000002B4908604FF40000284908618020D7
:1030600008618000086100BF002004F067F91120AA
:1030700000904FF080702149086140000861BDF860
:1030800000001F4908604FF400001C4908618020BF
:1030900008618000086100BF7820FEF7EDFF29205D
:1030A00000904FF080701549086140000861BDF83C
:1030B0000000134908604FF40000104908618020A7
:1030C00008618000086100BF1420FEF7D5FF2C20A6
:1030D00000904FF080700949086140000861BDF818
:1030E0000000074908604FF400000449086180208F
:1030F00008618000086100BF08BD000000100140A9
:103100000C0C014008B5ED2000904FF08070FE4996
:10311000086140000861BDF80000FC4908604FF4F8
:103120000000F9490861802008618000086100BF43
:10313000012004F003F9FE2004F000F9EE200090D5
:103140004FF08070F049086140000861BDF8000050
:10315000EE4908604FF40000EB49086180200861E7
:103160008000086100BFDE2004F0E8F8212004F0B0
:10317000E5F8F12000904FF08070E34908614000CD
:103180000861BDF80000E14908604FF40000DE4925
:103190000861802008618000086100BF012004F000
:1031A000CDF8DF2000904FF08070D74908614000D3
:1031B0000861BDF80000D54908604FF40000D2490D
:1031C0000861802008618000086100BF102004F0C1
:1031D000B5F8C42000904FF08070CB4908614000E2
:1031E0000861BDF80000C94908604FF40000C649F5
:1031F0000861802008618000086100BF8F2004F012
:103200009DF8C62000904FF08070BF4908614000D3
:103210000861BDF80000BD4908604FF40000BA49DC
:103220000861802008618000086100BF002004F070
:1032300085F8E22004F082F8E22004F07FF8E22032
:1032400004F07CF8BF2000904FF08070AE49086118
:1032500040000861BDF80000AC4908604FF4000070
:10326000A9490861802008618000086100BFAA2088
:1032700004F064F8B02000904FF08070A24908611B
:1032800040000861BDF80000A04908604FF400004C
:103290009D490861802008618000086100BF0D2001
:1032A00004F04CF8002004F049F80D2004F046F832
:1032B000002004F043F8112004F040F8002004F04E
:1032C0003DF8192004F03AF8002004F037F82120E6
:1032D00004F034F8002004F031F82D2004F02EF82A
:1032E000002004F02BF83D2004F028F8002004F022
:1032F00025F85D2004F022F8002004F01FF85D207E
:1033000004F01CF8002004F019F8B12000904FF0F0
:1033100080707D49086140000861BDF800007B496C
:1033200008604FF40000784908618020086180003F
:10333000086100BF802004F001F8002003F0FEFFC8
:103340008B2003F0FBFF002003F0F8FF962003F032
:10335000F5FF002003F0F2FFB22000904FF08070E4
:103360006949086140000861BDF8000067490860CC
:103370004FF4000064490861802008618000086102
:1033800000BF002003F0DAFF002003F0D7FF022087
:1033900003F0D4FF002003F0D1FF032003F0CEFFA1
:1033A000002003F0CBFFB32000904FF0807056490F
:1033B000086140000861BDF80000544908604FF4FE
:1033C000000051490861802008618000086100BF49
:1033D000002003F0B3FF002003F0B0FF002003F053
:1033E000ADFF002003F0AAFF002003F0A7FF00209C
:1033F00003F0A4FF002003F0A1FF002003F09EFFD4
:10340000002003F09BFF002003F098FF002003F052
:1034100095FF002003F092FF002003F08FFF0020B3
:1034200003F08CFF002003F089FF002003F086FFEB
:10343000002003F083FF002003F080FF002003F052
:103440007DFF002003F07AFF002003F077FF0020CB
:1034500003F074FF002003F071FF002003F06EFF03
:10346000B42000904FF08070274908614000086147
:10347000BDF80000254908604FF4000022490861AA
:10348000802008618000086100BF8B2003F056FF98
:10349000002003F053FF962003F050FF002003F0BC
:1034A0004DFFA12003F04AFF002003F047FFB520A5
:1034B00000904FF080701449086140000861BDF829
:1034C0000000124908604FF400000F490861802095
:1034D00008618000086100BF022003F02FFF002078
:1034E00003F02CFF032003F029FF002003F026FF48
:1034F000042003F023FF002003F020FFB6200090FB
:103500004FF08070004903E0001001400C0C0140B6
:10351000086140000861BDF80000FE4908604FF4F2
:103520000000FD490861802008618000086100BF3B
:10353000002003F003FF002003F000FFB7200090FD
:103540004FF08070F449086140000861BDF8000048
:10355000F04908604FF40000EF49086180200861DD
:103560008000086100BF002003F0E8FE002003F0A7
:10357000E5FE3F2003F0E2FE002003F0DFFE5E20C8
:1035800003F0DCFE002003F0D9FE642003F0D6FE39
:10359000002003F0D3FE8C2003F0D0FE002003F0C7
:1035A000CDFEAC2003F0CAFE002003F0C7FEDC20F5
:1035B00003F0C4FE002003F0C1FE702003F0BEFE45
:1035C000002003F0BBFE902003F0B8FE002003F0C3
:1035D000B5FEEB2003F0B2FE002003F0AFFEDC20CE
:1035E00003F0ACFE002003F0A9FEB82000904FF0DD
:1035F0008070C949086140000861BDF80000C549F4
:1036000008604FF40000C449086180200861800010
:10361000086100BF002003F091FE002003F08EFE41
:10362000002003F08BFE002003F088FE002003F052
:1036300085FE002003F082FE002003F07FFE0020C4
:1036400003F07CFEBA2000904FF08070B249086110
:1036500040000861BDF80000AE4908604FF400006A
:10366000AD490861802008618000086100BF242006
:1036700003F064FE002003F061FE002003F05EFE14
:10368000002003F05BFEC12000904FF08070A24943
:10369000086140000861BDF800009E4908604FF4D1
:1036A00000009D490861802008618000086100BF1A
:1036B000202003F043FE002003F040FE542003F0DE
:1036C0003DFE002003F03AFEFF2003F037FE00200D
:1036D00003F034FEC22000904FF080708E490861E4
:1036E00040000861BDF800008A4908604FF40000FE
:1036F00089490861802008618000086100BF0A20B4
:1037000003F01CFE002003F019FE042003F016FE57
:10371000002003F013FEC32000904FF080707E491C
:10372000086140000861BDF800007A4908604FF464
:10373000000079490861802008618000086100BFAD
:103740003C2003F0FBFD002003F0F8FD3A2003F0DD
:10375000F5FD002003F0F2FD392003F0EFFD00201D
:1037600003F0ECFD372003F0E9FD002003F0E6FD57
:103770003C2003F0E3FD002003F0E0FD362003F0E1
:10378000DDFD002003F0DAFD322003F0D7FD00203C
:1037900003F0D4FD2F2003F0D1FD002003F0CEFD77
:1037A0002C2003F0CBFD002003F0C8FD292003F0FE
:1037B000C5FD002003F0C2FD262003F0BFFD002060
:1037C00003F0BCFD242003F0B9FD002003F0B6FD9A
:1037D000242003F0B3FD002003F0B0FD232003F00C
:1037E000ADFD002003F0AAFD3C2003F0A7FD002062
:1037F00003F0A4FD362003F0A1FD002003F09EFDA0
:10380000322003F09BFD002003F098FD2F2003F0F1
:1038100095FD002003F092FD2C2003F08FFD002089
:1038200003F08CFD292003F089FD002003F086FDC4
:10383000262003F083FD002003F080FD242003F008
:103840007DFD002003F07AFD242003F077FD0020A9
:1038500003F074FD232003F071FD002003F06EFDE2
:10386000C42000904FF080702B490861400008612F
:10387000BDF80000274908604FF4000026490861A0
:10388000802008618000086100BF622003F056FDBF
:10389000002003F053FD052003F050FD002003F04D
:1038A0004DFD842003F04AFD002003F047FDF02089
:1038B00003F044FD002003F041FD182003F03EFD1D
:1038C000002003F03BFDA42003F038FD002003F0AE
:1038D00035FD182003F032FD002003F02FFD5020AD
:1038E00003F02CFD002003F029FD0C2003F026FD41
:1038F000002003F023FD172003F020FD002003F03B
:103900001DFD952003F01AFD002003F017FDF320A4
:1039100004E000000C0C01400010014003F00EFD1B
:10392000002003F00BFDE62003F008FD002003F06B
:1039300005FDC52000904FF08070FE4908614000F1
:103940000861BDF80000FC4908604FF40000F94927
:103950000861802008618000086100BF322003F008
:10396000EDFC002003F0EAFC442003F0E7FC00201B
:1039700003F0E4FC652003F0E1FC002003F0DEFC32
:10398000762003F0DBFC002003F0D8FC882003F055
:10399000D5FC002003F0D2FCC62000904FF08070D0
:1039A000E449086140000861BDF80000E249086090
:1039B0004FF40000DF490861802008618000086141
:1039C00000BF202003F0BAFC002003F0B7FC172052
:1039D00003F0B4FC002003F0B1FC012003F0AEFCC6
:1039E000002003F0ABFCC72000904FF08070D1495D
:1039F000086140000861BDF80000CF4908604FF43D
:103A00000000CC490861802008618000086100BF87
:103A1000002003F093FC002003F090FC002003F052
:103A20008DFC002003F08AFCC82000904FF08070CD
:103A3000C049086140000861BDF80000BE49086047
:103A40004FF40000BB4908618020086180000861D4
:103A500000BF002003F072FC002003F06FFC002088
:103A600003F06CFC002003F069FCC92000904FF0CB
:103A70008070B049086140000861BDF80000AE499F
:103A800008604FF40000AB490861802008618000A5
:103A9000086100BF002003F051FC002003F04EFC41
:103AA000002003F04BFC002003F048FC002003F052
:103AB00045FC002003F042FC002003F03FFC002006
:103AC00003F03CFC002003F039FC002003F036FC3E
:103AD000002003F033FC002003F030FC002003F052
:103AE0002DFC002003F02AFC002003F027FC00201E
:103AF00003F024FCE02000904FF080708D490861B5
:103B000040000861BDF800008B4908604FF40000D8
:103B100088490861802008618000086100BF162084
:103B200003F00CFC002003F009FC1C2003F006FC51
:103B3000002003F003FC212003F000FC002003F030
:103B4000FDFB362003F0FAFB002003F0F7FB4620D4
:103B500003F0F4FB002003F0F1FB522003F0EEFB36
:103B6000002003F0EBFB642003F0E8FB002003F0EF
:103B7000E5FB7A2003F0E2FB002003F0DFFB8B2063
:103B800003F0DCFB002003F0D9FB992003F0D6FB07
:103B9000002003F0D3FBA82003F0D0FB002003F0AB
:103BA000CDFBB92003F0CAFB002003F0C7FBC42003
:103BB00003F0C4FB002003F0C1FBCA2003F0BEFBEE
:103BC000002003F0BBFBD22003F0B8FB002003F081
:103BD000B5FBD92003F0B2FB002003F0AFFBE020DF
:103BE00003F0ACFB002003F0A9FBF32003F0A6FBDD
:103BF000002003F0A3FBE12000904FF080704D49BE
:103C0000086140000861BDF800004B4908604FF4AE
:103C1000000048490861802008618000086100BFF9
:103C2000162003F08BFB002003F088FB1C2003F020
:103C300085FB002003F082FB222003F07FFB0020A5
:103C400003F07CFB362003F079FB002003F076FBC9
:103C5000452003F073FB002003F070FB522003F0BB
:103C60006DFB002003F06AFB642003F067FB00207B
:103C700003F064FB7A2003F061FB002003F05EFB9D
:103C80008B2003F05BFB002003F058FB992003F02E
:103C900055FB002003F052FBA82003F04FFB00204F
:103CA00003F04CFBB92003F049FB002003F046FB76
:103CB000C42003F043FB002003F040FBCA2003F0C4
:103CC0003DFB002003F03AFBD22003F037FB00203D
:103CD00003F034FBD82003F031FB002003F02EFB6F
:103CE000E02003F02BFB002003F028FBF32003F07F
:103CF00025FB002003F022FBE22000904FF08070B3
:103D00000C49086140000861BDF800000A490860DC
:103D10004FF40000074908618020086180000861B5
:103D200000BF052003F00AFB002003F007FB0B2077
:103D300004E00000001001400C0C014003F0FEFA0A
:103D4000002003F0FBFA1B2003F0F8FA002003F038
:103D5000F5FA342003F0F2FA002003F0EFFA4420E1
:103D600003F0ECFA002003F0E9FA4F2003F0E6FA42
:103D7000002003F0E3FA612003F0E0FA002003F0F2
:103D8000DDFA792003F0DAFA002003F0D7FA882070
:103D900003F0D4FA002003F0D1FA972003F0CEFA12
:103DA000002003F0CBFAA62003F0C8FA002003F0AD
:103DB000C5FAB72003F0C2FA002003F0BFFAC22010
:103DC00003F0BCFA002003F0B9FAC72003F0B6FAFA
:103DD000002003F0B3FAD12003F0B0FA002003F082
:103DE000ADFAD62003F0AAFA002003F0A7FADD20EE
:103DF00003F0A4FA002003F0A1FAF32003F09EFAE6
:103E0000002003F09BFAE32000904FF08070FE4901
:103E1000086140000861BDF80000FC4908604FF4EB
:103E20000000F9490861802008618000086100BF36
:103E3000052003F083FA002003F080FA0A2003F043
:103E40007DFA002003F07AFA1C2003F077FA0020B4
:103E500003F074FA332003F071FA002003F06EFAD5
:103E6000442003F06BFA002003F068FA502003F0BE
:103E700065FA002003F062FA622003F05FFA002086
:103E800003F05CFA782003F059FA002003F056FAA8
:103E9000882003F053FA002003F050FA972003F033
:103EA0004DFA002003F04AFAA62003F047FA00205A
:103EB00003F044FAB72003F041FA002003F03EFA81
:103EC000C22003F03BFA002003F038FAC72003F0C9
:103ED00035FA002003F032FAD12003F02FFA002047
:103EE00003F02CFAD52003F029FA002003F026FA7B
:103EF000DD2003F023FA002003F020FAF32003F082
:103F00001DFA002003F01AFAE42000904FF08070B0
:103F1000BD49086140000861BDF80000BB49086068
:103F20004FF40000B84908618020086180000861F2
:103F300000BF012003F002FA002003F0FFF9012086
:103F400003F0FCF9002003F0F9F9022003F0F6F980
:103F5000002003F0F3F92A2003F0F0F9002003F029
:103F6000EDF93C2003F0EAF9002003F0E7F94B20DB
:103F700003F0E4F9002003F0E1F95D2003F0DEF93D
:103F8000002003F0DBF9742003F0D8F9002003F0DF
:103F9000D5F9842003F0D2F9002003F0CFF9932063
:103FA00003F0CCF9002003F0C9F9A22003F0C6F910
:103FB000002003F0C3F9B32003F0C0F9002003F0A0
:103FC000BDF9BE2003F0BAF9002003F0B7F9C42010
:103FD00003F0B4F9002003F0B1F9CD2003F0AEF9FD
:103FE000002003F0ABF9D32003F0A8F9002003F080
:103FF000A5F9DD2003F0A2F9002003F09FF9F320DA
:1040000003F09CF9002003F099F9E52000904FF0AF
:1040100080707D49086140000861BDF800007B495F
:1040200008604FF400007849086180200861800032
:10403000086100BF002003F081F9002003F07EF941
:10404000002003F07BF9002003F078F9022003F050
:1040500075F9002003F072F9292003F06FF90020B0
:1040600003F06CF93C2003F069F9002003F066F9D5
:104070004B2003F063F9002003F060F95D2003F0AA
:104080005DF9002003F05AF9742003F057F900207D
:1040900003F054F9842003F051F9002003F04EF9A5
:1040A000932003F04BF9002003F048F9A22003F01D
:1040B00045F9002003F042F9B32003F03FF9002056
:1040C00003F03CF9BE2003F039F9002003F036F983
:1040D000C42003F033F9002003F030F9CD2003F0C1
:1040E0002DF9002003F02AF9D32003F027F900204E
:1040F00003F024F9DC2003F021F9002003F01EF97D
:10410000F32003F01BF9002003F018F9E6200090DB
:104110004FF080703C49086140000861BDF8000024
:104120003A4908604FF4000037490861802008616F
:104130008000086100BF112003F000F9002003F0A7
:10414000FDF8342003F0FAF8002003F0F7F85620C9
:1041500003F0F4F8002003F0F1F8762003F0EEF815
:10416000002003F0EBF8772003F0E8F8002003F0DC
:10417000E5F8662003F0E2F8002003F0DFF888207D
:1041800003F0DCF8002003F0D9F8992003F0D6F80A
:10419000002003F0D3F8BB2003F0D0F8002003F098
:1041A000CDF8992003F0CAF8002003F0C7F8662084
:1041B00003F0C4F8002003F0C1F8552003F0BEF866
:1041C000002003F0BBF8552003F0B8F8002003F0FE
:1041D000B5F8452003F0B2F8002003F0AFF8432013
:1041E00003F0ACF8002003F0A9F8442003F0A6F88F
:1041F000002003F0A3F8E72000904FF08070024900
:1042000008614000086103E0001001400C0C01400F
:10421000BDF80000FE4908604FF40000FD49086148
:10422000802008618000086100BF322003F086F81A
:10423000002003F083F8552003F080F8002003F0FD
:104240007DF8762003F07AF8002003F077F86620F6
:1042500003F074F8002003F071F8672003F06EF8A3
:10426000002003F06BF8672003F068F8002003F0EB
:1042700065F8872003F062F8002003F05FF89920CA
:1042800003F05CF8002003F059F8BB2003F056F867
:10429000002003F053F8992003F050F8002003F0B9
:1042A0004DF8772003F04AF8002003F047F8442047
:1042B00003F044F8002003F041F8562003F03EF8E4
:1042C000002003F03BF8232003F038F8002003F02F
:1042D00035F8332003F032F8002003F02FF84520A2
:1042E00003F02CF8002003F029F8E82000904FF0AC
:1042F0008070C849086140000861BDF80000C449E9
:1043000008604FF40000C349086180200861800004
:10431000086100BF002003F011F8002003F00EF840
:10432000992003F00BF8002003F008F8872003F031
:1043300005F8002003F002F8882002F0FFFF0020BB
:1043400002F0FCFF772002F0F9FF002002F0F6FFF8
:10435000662002F0F3FF002002F0F0FF882002F058
:10436000EDFF002002F0EAFFAA2002F0E7FF0020A4
:1043700002F0E4FFBB2002F0E1FF002002F0DEFFCC
:10438000992002F0DBFF002002F0D8FF662002F047
:10439000D5FF002002F0D2FF552002F0CFFF002011
:1043A00002F0CCFF552002F0C9FF002002F0C6FF4A
:1043B000442002F0C3FF002002F0C0FF442002F0BE
:1043C000BDFF002002F0BAFF552002F0B7FF002029
:1043D00002F0B4FFE92000904FF080708D49086131
:1043E00040000861BDF80000894908604FF40000F2
:1043F00088490861802008618000086100BFAA2008
:1044000002F09CFF002002F099FF002002F096FFCE
:10441000002002F093FF002000904FF080707D4953
:10442000086140000861BDF80000794908604FF458
:10443000000078490861802008618000086100BFA1
:10444000AA2002F07BFFCF2000904FF080707149CE
:10445000086140000861BDF800006D4908604FF434
:1044600000006C490861802008618000086100BF7D
:10447000002002F063FF002002F060FF002002F045
:104480005DFF002002F05AFF002002F057FF0020DD
:1044900002F054FF002002F051FF002002F04EFF16
:1044A000002002F04BFF002002F048FF002002F045
:1044B00045FF002002F042FF002002F03FFF0020F5
:1044C00002F03CFF002002F039FF002002F036FF2E
:1044D000002002F033FFF02000904FF080704D4933
:1044E000086140000861BDF80000494908604FF4C8
:1044F000000048490861802008618000086100BF11
:10450000002002F01BFF502002F018FF002002F0F4
:1045100015FF002002F012FF002002F00FFFF32031
:1045200000904FF080703B49086140000861BDF881
:104530000000374908604FF40000364908618020C8
:1045400008618000086100BF002002F0F7FEF9203A
:1045500000904FF080702F49086140000861BDF85D
:1045600000002B4908604FF400002A4908618020B0
:1045700008618000086100BF062002F0DFFE102005
:1045800002F0DCFE292002F0D9FE002002F0D6FE67
:104590003A2000904FF080701E4908614000086189
:1045A000BDF800001A4908604FF40000194908617D
:1045B000802008618000086100BF552002F0BEFE27
:1045C000112000904FF0807012490861400008618E
:1045D000BDF800000E4908604FF400000D49086165
:1045E000802008618000086100BF6420FDF744FD61
:1045F000292000904FF08070064908614000086152
:10460000BDF80000024908604FF40000014903E0D2
:104610000C0C0140001001400861802008618000FE
:10462000086100BF352000904FF0807008614000A5
:104630000861BDF80000364908604FF400003549B4
:104640000861802008618000086100BF002002F03E
:1046500075FE512000904FF080702E490861400097
:104660000861BDF800002A4908604FF4000029499C
:104670000861802008618000086100BFFF2002F00F
:104680005DFE532000904FF0807022490861400089
:104690000861BDF800001E4908604FF400001D4984
:1046A0000861802008618000086100BF2C2002F0B2
:1046B00045FE552000904FF080701649086140007B
:1046C0000861BDF80000124908604FF4000011496C
:1046D0000861802008618000086100BF822002F02C
:1046E0002DFE2C2000904FF080700A490861400098
:1046F0000861BDF80000064908604FF40000054954
:104700000861802008618000086100BF08BD0000CA
:104710000C0C01400010014008B555214FF47040C9
:1047200002F020FEAA214FF2010002F01BFE5221EE
:104730004FF2020002F016FE08214FF2030002F0D1
:1047400011FE01214FF2040002F00CFE0D214FF486
:10475000304002F007FE0D214BF2010002F002FE94
:104760000D214BF2020002F0FDFD34214FF43640E2
:1047700002F0F8FD34214BF2016002F0F3FD342128
:104780004BF2026002F0EEFD0D214FF4314002F0D9
:10479000E9FD0D214BF2011002F0E4FD0D214BF279
:1047A000021002F0DFFD34214FF4374002F0DAFD51
:1047B00034214BF2017002F0D5FD34214BF202702E
:1047C00002F0D0FD00214FF4324002F0CBFD002179
:1047D0004BF2012002F0C6FD00214BF2022002F054
:1047E000C1FD24214FF4384002F0BCFD24214BF6DA
:1047F000010002F0B7FD24214BF6020002F0B2FDE9
:1048000001214FF43F4002F0ADFD0F214FF4334042
:1048100002F0A8FD0F214BF2013002F0A3FD0F21A1
:104820004BF2023002F09EFD34214FF4394002F089
:1048300099FD34214BF6011002F094FD34214BF622
:10484000021002F08FFD08214FF4354002F08AFD7E
:1048500008214BF2015002F085FD08214BF2025075
:1048600002F080FD03214FF4424002F07BFD242141
:104870004FF43A4002F076FD24214BF6012002F07D
:1048800071FD24214BF6022002F06CFD00214FF453
:104890003C4002F067FD78214BF6014002F062FDDA
:1048A00000214BF6024002F05DFD00214FF43D4037
:1048B00002F058FD78214BF6015002F053FD002123
:1048C0004BF6025002F04EFD00214FF43E4002F044
:1048D00049FD64214BF6016002F044FD00214FF4D4
:1048E000514002F03FFD33214DF2011002F03AFD3C
:1048F00000214DF2021002F035FD34214DF203107B
:1049000002F030FD00214DF2041002F02BFD3A219F
:104910004DF2051002F026FD00214DF2061002F0C6
:1049200021FD4A214DF2071002F01CFD00214DF23D
:10493000081002F017FD5C214DF2091002F012FD83
:1049400000214DF20A1002F00DFD81214DF20B10F5
:1049500002F008FD00214DF20C1002F003FDA6212B
:104960004DF20D1002F0FEFC00214DF20E1002F08F
:10497000F9FCE5214DF20F1002F0F4FC01214DF29B
:10498000101002F0EFFC13214DF2111002F0EAFCBE
:1049900001214DF2121002F0E5FC54214DF21310EA
:1049A00002F0E0FC01214DF2141002F0DBFC822148
:1049B0004DF2151002F0D6FC01214DF2161002F056
:1049C000D1FCCA214DF2171002F0CCFC02214DF2AD
:1049D000181002F0C7FC00214DF2191002F0C2FCC1
:1049E00002214DF21A1002F0BDFC01214DF21B1004
:1049F00002F0B8FC02214DF21C1002F0B3FC34218D
:104A00004DF21D1002F0AEFC02214DF21E1002F01C
:104A1000A9FC67214DF21F1002F0A4FC02214DF207
:104A2000201002F09FFC84214DF2211002F09AFC2C
:104A300002214DF2221002F095FCA4214DF2231028
:104A400002F090FC02214DF2241002F08BFCB72101
:104A50004DF2251002F086FC02214DF2261002F0E4
:104A600081FCCF214DF2271002F07CFC02214DF297
:104A7000281002F077FCDE214DF2291002F072FCC2
:104A800002214DF22A1002F06DFCF2214DF22B10A2
:104A900002F068FC02214DF22C1002F063FCFE21B2
:104AA0004DF22D1002F05EFC03214DF22E1002F0AB
:104AB00059FC10214DF22F1002F054FC03214DF24D
:104AC000301002F04FFC33214DF2311002F04AFC5D
:104AD00003214DF2321002F045FC6D214DF23310EE
:104AE00002F040FC00214FF4524002F03BFC332125
:104AF0004DF2012002F036FC00214DF2022002F0BE
:104B000031FC34214DF2032002F02CFC00214DF247
:104B1000042002F027FC3A214DF2052002F022FC8D
:104B200000214DF2062002F01DFC4A214DF2072023
:104B300002F018FC00214DF2082002F013FC5C2169
:104B40004DF2092002F00EFC00214DF20A2002F085
:104B500009FC81214DF20B2002F004FC00214DF2F2
:104B60000C2002F0FFFBA6214DF20D2002F0FAFB13
:104B700000214DF20E2002F0F5FBE5214DF20F2051
:104B800002F0F0FB01214DF2102002F0EBFB1321AB
:104B90004DF2112002F0E6FB01214DF2122002F04D
:104BA000E1FB54214DF2132002F0DCFB01214DF218
:104BB000142002F0D7FB82214DF2152002F0D2FB27
:104BC00001214DF2162002F0CDFBCA214DF2172033
:104BD00002F0C8FB02214DF2182002F0C3FB0021B5
:104BE0004DF2192002F0BEFB02214DF21A2002F014
:104BF000B9FB01214DF21B2002F0B4FB02214DF262
:104C00001C2002F0AFFB34214DF21D2002F0AAFB64
:104C100002214DF21E2002F0A5FB67214DF21F205C
:104C200002F0A0FB02214DF2202002F09BFB842128
:104C30004DF2212002F096FB02214DF2222002F0DB
:104C400091FBA4214DF2232002F08CFB02214DF2B6
:104C5000242002F087FBB7214DF2252002F082FBD1
:104C600002214DF2262002F07DFBCF214DF22720BC
:104C700002F078FB02214DF2282002F073FBDE21C6
:104C80004DF2292002F06EFB02214DF22A2002F0A3
:104C900069FBF2214DF22B2002F064FB02214DF260
:104CA0002C2002F05FFBFE214DF22D2002F05AFB7A
:104CB00003214DF22E2002F055FB10214DF22F2042
:104CC00002F050FB03214DF2302002F04BFB332168
:104CD0004DF2312002F046FB03214DF2322002F06A
:104CE00041FB6D214DF2332002F03CFB00214FF4DB
:104CF000534002F037FB33214DF2013002F032FB1A
:104D000000214DF2023002F02DFB34214DF2033030
:104D100002F028FB00214DF2043002F023FB3A217F
:104D20004DF2053002F01EFB00214DF2063002F07C
:104D300019FB4A214DF2073002F014FB00214DF21D
:104D4000083002F00FFB5C214DF2093002F00AFB43
:104D500000214DF20A3002F005FB81214DF20B30AB
:104D600002F000FB00214DF20C3002F0FBFAA6210C
:104D70004DF20D3002F0F6FA00214DF20E3002F045
:104D8000F1FAE5214DF20F3002F0ECFA01214DF27B
:104D9000103002F0E7FA13214DF2113002F0E2FA7E
:104DA00001214DF2123002F0DDFA54214DF21330A0
:104DB00002F0D8FA01214DF2143002F0D3FA822128
:104DC0004DF2153002F0CEFA01214DF2163002F00C
:104DD000C9FACA214DF2173002F0C4FA02214DF28D
:104DE000183002F0BFFA00214DF2193002F0BAFA81
:104DF00002214DF21A3002F0B5FA01214DF21B30BA
:104E000002F0B0FA02214DF21C3002F0ABFA34216C
:104E10004DF21D3002F0A6FA02214DF21E3002F0D2
:104E2000A1FA67214DF21F3002F09CFA02214DF2E7
:104E3000203002F097FA84214DF2213002F092FAEC
:104E400002214DF2223002F08DFAA4214DF22330DE
:104E500002F088FA02214DF2243002F083FAB721E1
:104E60004DF2253002F07EFA02214DF2263002F09A
:104E700079FACF214DF2273002F074FA02214DF277
:104E8000283002F06FFADE214DF2293002F06AFA82
:104E900002214DF22A3002F065FAF2214DF22B3058
:104EA00002F060FA02214DF22C3002F05BFAFE2192
:104EB0004DF22D3002F056FA03214DF22E3002F061
:104EC00051FA10214DF22F3002F04CFA03214DF22D
:104ED000303002F047FA33214DF2313002F042FA1D
:104EE00003214DF2323002F03DFA6D214DF23330A4
:104EF00002F038FA00214FF4544002F033FA332123
:104F00004DF2014002F02EFA00214DF2024002F073
:104F100029FA34214DF2034002F024FA00214DF227
:104F2000044002F01FFA3A214DF2054002F01AFA4D
:104F300000214DF2064002F015FA4A214DF20740D9
:104F400002F010FA00214DF2084002F00BFA5C2149
:104F50004DF2094002F006FA00214DF20A4002F03B
:104F600001FA81214DF20B4002F0FCF900214DF2D3
:104F70000C4002F0F7F9A6214DF20D4002F0F2F9D3
:104F800000214DF20E4002F0EDF9E5214DF20F4007
:104F900002F0E8F901214DF2104002F0E3F913218B
:104FA0004DF2114002F0DEF901214DF2124002F003
:104FB000D9F954214DF2134002F0D4F901214DF2F8
:104FC000144002F0CFF982214DF2154002F0CAF9E7
:104FD00001214DF2164002F0C5F9CA214DF21740E9
:104FE00002F0C0F902214DF2184002F0BBF9002195
:104FF0004DF2194002F0B6F902214DF21A4002F0CA
:10500000B1F901214DF21B4002F0ACF902214DF241
:105010001C4002F0A7F934214DF21D4002F0A2F924
:1050200002214DF21E4002F09DF967214DF21F4012
:1050300002F098F902214DF2204002F093F9842108
:105040004DF2214002F08EF902214DF2224002F091
:1050500089F9A4214DF2234002F084F902214DF296
:10506000244002F07FF9B7214DF2254002F07AF991
:1050700002214DF2264002F075F9CF214DF2274072
:1050800002F070F902214DF2284002F06BF9DE21A6
:105090004DF2294002F066F902214DF22A4002F059
:1050A00061F9F2214DF22B4002F05CF902214DF240
:1050B0002C4002F057F9FE214DF22D4002F052F93A
:1050C00003214DF22E4002F04DF910214DF22F40F8
:1050D00002F048F903214DF2304002F043F9332148
:1050E0004DF2314002F03EF903214DF2324002F020
:1050F00039F96D214DF2334002F034F900214FF4BB
:10510000554002F02FF933214DF2015002F02AF9F7
:1051100000214DF2025002F025F934214DF20350E6
:1051200002F020F900214DF2045002F01BF93A215F
:105130004DF2055002F016F900214DF2065002F032
:1051400011F94A214DF2075002F00CF900214DF2FD
:10515000085002F007F95C214DF2095002F002F903
:1051600000214DF20A5002F0FDF881214DF20B5062
:1051700002F0F8F800214DF20C5002F0F3F8A621ED
:105180004DF20D5002F0EEF800214DF20E5002F0FB
:10519000E9F8E5214DF20F5002F0E4F801214DF25B
:1051A000105002F0DFF813214DF2115002F0DAF83E
:1051B00001214DF2125002F0D5F854214DF2135056
:1051C00002F0D0F801214DF2145002F0CBF8822108
:1051D0004DF2155002F0C6F801214DF2165002F0C2
:1051E000C1F8CA214DF2175002F0BCF802214DF26D
:1051F000185002F0B7F800214DF2195002F0B2F841
:1052000002214DF21A5002F0ADF801214DF21B506F
:1052100002F0A8F802214DF21C5002F0A3F834214C
:105220004DF21D5002F09EF802214DF21E5002F088
:1052300099F867214DF21F5002F094F802214DF2C7
:10524000205002F08FF884214DF2215002F08AF8AC
:1052500002214DF2225002F085F8A4214DF2235094
:1052600002F080F802214DF2245002F07BF8B721C1
:105270004DF2255002F076F802214DF2265002F050
:1052800071F8CF214DF2275002F06CF802214DF257
:10529000285002F067F8DE214DF2295002F062F842
:1052A00002214DF22A5002F05DF8F2214DF22B500E
:1052B00002F058F802214DF22C5002F053F8FE2172
:1052C0004DF22D5002F04EF803214DF22E5002F017
:1052D00049F810214DF22F5002F044F803214DF20D
:1052E000305002F03FF833214DF2315002F03AF8DD
:1052F00003214DF2325002F035F86D214DF233505A
:1053000002F030F800214FF4564002F02BF8332120
:105310004DF2016002F026F800214DF2026002F029
:1053200021F834214DF2036002F01CF800214DF207
:10533000046002F017F83A214DF2056002F012F80D
:1053400000214DF2066002F00DF84A214DF207608F
:1053500002F008F800214DF2086002F003F85C2129
:105360004DF2096001F0FEFF00214DF20A6001F0EC
:10537000F9FF81214DF20B6001F0F4FF00214DF2A5
:105380000C6001F0EFFFA6214DF20D6001F0EAFF85
:1053900000214DF20E6001F0E5FFE5214DF20F60B6
:1053A00001F0E0FF01214DF2106001F0DBFF13215D
:1053B0004DF2116001F0D6FF01214DF2126001F0B3
:1053C000D1FF54214DF2136001F0CCFF01214DF2C9
:1053D000146001F0C7FF82214DF2156001F0C2FF99
:1053E00001214DF2166001F0BDFFCA214DF2176098
:1053F00001F0B8FF02214DF2186001F0B3FF002167
:105400004DF2196001F0AEFF02214DF21A6001F079
:10541000A9FF01214DF21B6001F0A4FF02214DF212
:105420001C6001F09FFF34214DF21D6001F09AFFD6
:1054300002214DF21E6001F095FF67214DF21F60C1
:1054400001F090FF02214DF2206001F08BFF8421DA
:105450004DF2216001F086FF02214DF2226001F041
:1054600081FFA4214DF2236001F07CFF02214DF267
:10547000246001F077FFB7214DF2256001F072FF43
:1054800002214DF2266001F06DFFCF214DF2276021
:1054900001F068FF02214DF2286001F063FFDE2178
:1054A0004DF2296001F05EFF02214DF22A6001F009
:1054B00059FFF2214DF22B6001F054FF02214DF211
:1054C0002C6001F04FFFFE214DF22D6001F04AFFEC
:1054D00003214DF22E6001F045FF10214DF22F60A7
:1054E00001F040FF03214DF2306001F03BFF33211A
:1054F0004DF2316001F036FF03214DF2326001F0D0
:1055000031FF6D214DF2336001F02CFF55214FF436
:10551000704001F027FFAA214FF2010001F022FFA5
:1055200052214FF2020001F01DFF08214FF203004B
:1055300001F018FF00214FF2040001F013FFCC210D
:105540004FF4314001F00EFF00214BF2011001F049
:1055500009FF05214FF4364001F004FF70214FF49C
:10556000374001F0FFFE70214BF2017001F0FAFEAE
:1055700001214FF4384001F0F5FE03214BF6010004
:1055800001F0F0FE03214BF6020001F0EBFE0321D7
:105590004BF6030001F0E6FE02214FF43C4001F01F
:1055A000E1FE00214BF6014001F0DCFE00214BF64C
:1055B000024001F0D7FED0214FF4494001F0D2FE65
:1055C00002214CF6011001F0CDFE50214CF60210E4
:1055D00001F0C8FE50214CF6031001F0C3FE50212B
:1055E0004CF6041001F0BEFE00214FF4545001F0BF
:1055F000B9FE55214FF4685001F0B4FE4FF48850C5
:1056000000904FF080701549086140000861BDF8B6
:105610000000134908604FF4000010490861802021
:1056200008618000086100BF7820FCF731FD4FF46D
:10563000245000904FF080700849086140000861D4
:10564000BDF80000064908604FF4000003490861F6
:10565000802008618000086100BF08BD0010014083
:105660000C0C014008B5E22000904FF08070D64944
:10567000086140000861BDF80000D44908604FF49B
:105680000000D1490861802008618000086100BFE6
:105690001D2001F053FE022001F050FE042001F015
:1056A0004DFE6420FCF7F4FCE02000904FF0807089
:1056B000C549086140000861BDF80000C3490860A1
:1056C0004FF40000C0490861802008618000086133
:1056D00000BF012001F032FE0A20FCF7CDFCE020E3
:1056E00000904FF08070B849086140000861BDF833
:1056F0000000B64908604FF40000B34908618020FB
:1057000008618000086100BF032001F017FE0C2033
:10571000FCF7B2FC012000900006AB490861400094
:105720000861BDF80000A94908604FF40000A649CF
:105730000861802008618000086100BF0A20FCF732
:105740009BFCE62000904FF080709F49086140006C
:105750000861BDF800009D4908604FF400009A49B7
:105760000861802008618000086100BF2F2001F0DF
:10577000E5FDFF2001F0E2FDFF2001F0DFFDB0209C
:1057800000904FF080709049086140000861BDF8BA
:1057900000008E4908604FF400008B4908618020AA
:1057A00008618000086100BF202001F0C7FD0020D3
:1057B00001F0C4FD032001F0C1FD40F21F3001F0F3
:1057C000BDFD012001F0BAFD40F2DF1001F0B6FD91
:1057D000002001F0B3FDB42000904FF080707A49B2
:1057E000086140000861BDF80000784908604FF486
:1057F000000075490861802008618000086100BFD1
:10580000042001F09BFD40F21F4001F097FD0020B5
:1058100001F094FD2E2001F091FD002001F08EFD9D
:10582000002001F08BFD002001F088FD002001F038
:1058300085FDB62000904FF08070634908614000FC
:105840000861BDF80000614908604FF400005E493E
:105850000861802008618000086100BF022001F01B
:105860006DFD4FF4037001F069FD002001F066FD4D
:10587000172001F063FD152001F060FD002001F00C
:105880005DFD002001F05AFDF02000904FF0807087
:105890004D49086140000861BDF800004B490860AF
:1058A0004FF40000484908618020086180000861C9
:1058B00000BF032001F042FD292000904FF08070CE
:1058C0004149086140000861BDF800003F49086097
:1058D0004FF400003C4908618020086180000861A5
:1058E00000BFD02000904FF0807008614000086138
:1058F000BDF80000354908604FF4000032490861E6
:10590000802008618000086100BF002001F016FDC2
:10591000BE2000904FF080702B4908614000086164
:10592000BDF80000294908604FF4000026490861CD
:10593000802008618000086100BF052001F0FEFCA6
:10594000FE2001F0FBFC012001F0F8FC002001F03A
:10595000F5FC002001F0F2FC002001F0EFFCB82083
:1059600000904FF080701849086140000861BDF850
:105970000000164908604FF40000134908618020B8
:1059800008618000086100BF032001F0D7FC0120FE
:1059900001F0D4FCBA2000904FF080700A490861F1
:1059A00040000861BDF80000084908604FF400009D
:1059B00005490861802008618000086100BF01205E
:1059C00001F0BCFC08BD0000001001400C0C0140BF
:1059D00008B5112000904FF08070FE49086140002A
:1059E0000861BDF80000FC4908604FF40000F94967
:1059F0000861802008618000086100BF7820FCF702
:105A00003BFB362000904FF08070F2490861400067
:105A10000861BDF80000F04908604FF40000ED494E
:105A20000861802008618000086100BF002001F04B
:105A300085FC3A2000904FF08070E64908614000F4
:105A40000861BDF80000E44908604FF40000E14936
:105A50000861802008618000086100BF052001F016
:105A60006DFCB22000904FF08070DA490861400070
:105A70000861BDF80000D84908604FF40000D5491E
:105A80000861802008618000086100BF0C2001F0DF
:105A900055FC0C2001F052FC002001F04FFC33209B
:105AA00001F04CFC332001F049FCB72000904FF08E
:105AB0008070C849086140000861BDF80000C6490F
:105AC00008604FF40000C34908618020086180002D
:105AD000086100BF352001F031FCBB2000904FF081
